:020000040800F2
:10000000B00F0020910100085F1B0008A516000832
:100010005D1B00088F040008232200080000000078
:100020000000000000000000000000006D1F00083C
:100030009104000800000000691E00086F1F0008FE
:10004000AB010008AB010008AB010008AB010008E0
:10005000AB010008AB0100089304000899040008F4
:10006000AB010008AB0100089F040008AB010008C9
:10007000AB010008AB010008AB010008AB010008B0
:10008000AB010008AB010008AB010008AB010008A0
:10009000AB010008AB010008AB010008AB01000890
:1000A000AB010008AB010008AB010008AB01000880
:1000B000D51F0008E11F0008AB010008AB010008D4
:1000C000AB010008AB010008AB010008AB01000860
:1000D000AB010008AB010008AB010008AB01000850
:1000E000AB010008AB010008AB01000800F002F80A
:1000F00000F03FF80AA090E8000C82448344AAF183
:100100000107DA4501D100F034F8AFF2090EBAE880
:100110000F0013F0010F18BFFB1A43F0010318473B
:1001200090300000B0300000103A24BF78C878C189
:10013000FAD8520724BF30C830C144BF04680C60ED
:10014000704700000023002400250026103A28BF35
:1001500078C1FBD8520728BF30C148BF0B60704739
:10016000642900F07D80002070471FB51FBD10B5C9
:1001700010BD00F052F91146FFF7F7FF02F062F8E8
:1001800000F070F903B4FFF7F2FF03BC00F078F958
:100190000948804709480047FEE7FEE7FEE7FEE71B
:1001A000FEE7FEE7FEE7FEE7FEE7FEE70448054957
:1001B000054A064B70470000D11F0008ED000008FB
:1001C000B0090020B00F0020B00B0020B00B0020C1
:1001D0000FB41CB5074B06AA7B44694600900598EE
:1001E00000F003F90020694600F012F91CBC5DF82C
:1001F00014FB0000350200002DE9F0410E460446D4
:10020000002020622046E168884730B3252805D0C9
:10021000D4E901219047206A401CF2E7E1682046BA
:1002200000278847050018D0A5F14100192802D8F9
:1002300020354FF400673246294620462760FFF7F5
:100240008FFF40B1012804D0F61D26F007060836BE
:10025000D8E7361DD6E72846DAE7206ABDE8F08100
:100260002DE9F0410646002410687529314616A58F
:1002700010D0AFF30080002802DA404213A507E057
:1002800031688A0701D512A502E0490704D511A5F6
:10029000012401E0AFF3008000210A2206F12407C7
:1002A00009E0B0FBF2FCB0FBF2F302FB1C003030C3
:1002B00078541846491C0028F3D123462A46304674
:1002C000BDE8F04100F032B8000000002D00000051
:1002D0002B000000200000004FF0000200B5134684
:1002E00094469646203922BFA0E80C50A0E80C5056
:1002F000B1F12001BFF4F7AF090728BFA0E80C5007
:1003000048BF0CC05DF804EB890028BF40F8042BFF
:1003100008BF704748BF20F8022B11F0804F18BF6C
:1003200000F8012B70477047704770472DE9F04780
:100330000D4699469246044600F124080168880655
:1003400004D5E06921F01001216000E00120A842FD
:1003500001DD471B00E00027A1697A1902EB0900C3
:10036000081AA0612078C00602D42046AFF30080AE
:10037000002608E0D4E901211AF806009047206A17
:10038000401C761C20624E45F4DB2078C0060AD55E
:100390002046AFF3008006E0D4E9012130209047E9
:1003A000206A401C2062381EA7F10107F4DC07E038
:1003B000D4E9012118F805009047206A401C20620A
:1003C000281EA5F10105F3DC2046AFF3008020785C
:1003D000000602D50220BDE8F0870120FBE70000FF
:1003E00001694A1C02610878704700B58FB0CDE9F9
:1003F00001310021059105497944CDE903101146E9
:100400006846FFF7F9FE0FB000BD0000E5FFFFFFF3
:100410000A6802F8010B0A607047754600F02CF874
:10042000AE4605006946534620F00700854618B0E1
:1004300020B5FFF7BBFEBDE820404FF000064FF0AF
:1004400000074FF000084FF0000B21F00701AC4609
:10045000ACE8C009ACE8C009ACE8C009ACE8C00928
:100460008D46704710B50446AFF300802046BDE8C6
:100470001040FFF787BE0000004870474C0900207D
:1004800001491820ABBEFEE7260002007047FEE7D8
:100490007047012000F068B8022000F065B8102015
:1004A00000F062B870B5002606800446018AC06874
:1004B00000F056F9F8B9A07810B1012811D01AE06F
:1004C00000F060F96168012501F5FA71884203D2F4
:1004D0002089401C208100E0258100F053F96060F4
:1004E000A57000F04FF9616801F5FA71884202D9F0
:1004F000FF2020802081218AE06800F031F9012866
:1005000008D1A078012805D12088FF2801D02089B2
:100510002080A67070BD0022016802600846704706
:100520000F4A10B59169012815D0022815D010285E
:1005300010D120210B4800F013F9094901221C3188
:1005400020B1012806D10868401C01E00868401E5F
:1005500008600A7110BD491C00E0491E916110BD80
:1005600010000020000C0140044910B50A68024246
:1005700002D00860FFF7D4FF10BD00001404014052
:100580002DE9F84FDFF8B891002409F1040A0AF1C7
:10059000040B23460F270BF1040EC9E00125A540EB
:1005A0002A40AA427DD1674ED1F804C0ACEB0608C0
:1005B000B44532D014DCBCF1030F3AD009DCBCF1F5
:1005C000000F2AD0BCF1010F1CD0BCF1020F31D1B9
:1005D0001DE0BCF1110F17D0BCF1120F2AD119E0A8
:1005E000B8F5881F19D006DCB8F5803F15D0B8F5EE
:1005F000801F1FD111E0B8F5001F0ED0B8F5041F01
:1006000018D10AE0CB6815E0CB681B1D12E0CB685F
:1006100008330FE0CB680C330CE08B682BB1012B57
:100620004FF0080303D0456104E0042302E00561B4
:1006300000E00023FF2A01D8064601E000F104068D
:100640004FEA840501D9A5F12005D6F8008007FA04
:1006500005FC28EA0C0803FA05F548EA0508C6F87F
:1006600000804D68ED0062D5374DAE6946F0010659
:10067000AE61AD6924F0030605F001050095334D28
:1006800006EB050CDCF80850A607360F07FA06F84B
:1006900025EA0805DFF8B880404503D14FF000088F
:1006A00017E044E0DFF8AC80404502D14FF001088C
:1006B0000FE0DFF8A480404502D14FF0020808E0C7
:1006C000DFF89880404502D14FF0030801E04FF079
:1006D000040808FA06F848EA0508CCF808804D68CE
:1006E000D9F80060ED034D4601D5164300E096436E
:1006F0002E604D68DAF80060AD03554601D516430B
:1007000000E096432E604D68DBF80060ED025D4628
:1007100001D5164300E096432E604D68DEF8006078
:10072000AD02754601D5164300E096432E60641C69
:100730000D682A46E5407FF431AFBDE8F88F000030
:1007400000040140000011100010024000000140B0
:1007500000080140000C014000100140001401405D
:100760008068084000D001207047C26821EA020377
:100770000A4043EA0241016170470AB101617047D2
:100780000904FBE701488068704700000000002072
:1007900070B5040025D094F83D00002520B984F8F8
:1007A0003C50204600F050F9242084F83D00206899
:1007B000016821F0010101602068016841F40041F5
:1007C00001602068016821F40041016000F098FA9E
:1007D0004D4A6168914201D84C4900E04C49884239
:1007E00001D2012070BD4B492368B0FBF1F15E6876
:1007F00026F03F060E435E606368934206D94FF4CD
:10080000967359434FF47A73B1FBF3F12368491C93
:100810001E6A26F03F06314319626168914210D882
:100820004900401EB0FBF1F2521CC2F30B02042A35
:1008300001D2042022E0B0FBF1F0401CC0F30B0019
:100840001CE0A268F2B301EBC10303EB0116431EE7
:10085000B3FBF6F35B1C43F480431B0549D092B312
:1008600001EBC10202EB0111401EB0FBF1F0401C94
:10087000C0F30B0040F4804040F400402168CA6996
:100880004CF6FF739A431043C861D4E90710014343
:100890002068026822F0C00211430160D4E903011C
:1008A00001432068826848F2FF339A431143816014
:1008B000D4E9050108432168CA6822F0FF02104309
:1008C000C86001E00EE016E02068016841F0010117
:1008D00001602564202084F83D00256384F83E50A3
:1008E000002070BD01EB4106431EB3FBF6F35B1C19
:1008F000B3E70120C2E701EB4101401EB0FBF1F07C
:10090000401CC0F30B00B7E7A086010080841E00E6
:1009100000093D0040420F002DE9FF4F83B09A4689
:10092000DDE9119793460446DDF84080FFF72AFF82
:10093000054694F83D0020287FD119230122404923
:100940002046009500F040FF002876D194F83C0046
:10095000012872D0012084F83C0020680168C90792
:1009600003D1016841F0010101602068016821F4B0
:1009700000610160212084F83D00402084F83E00A1
:1009800000262664C4F82480A4F82A90608D20856F
:100990002C48E062CDE9007553465A46204604993A
:1009A00000F098FE70B930E02A463946204600F043
:1009B0008AFF58B1206C042804D12068016841F4F2
:1009C00000710160012007B0BDE8F08F606A216806
:1009D00000780861606A401C6062218D491E89B2FE
:1009E0002185628D521E628522685369DB435B0755
:1009F0000BD469B100781061606A401C6062208D80
:100A0000401E2085608D401E6085208D0028CBD142
:100A10002A463946204600F0B1FE0028CAD154F8D3
:100A20003D0B016841F400710160202004F81E09AB
:100A3000E67766770020C6E7FFE70220C3E70000FD
:100A4000020010000000FFFF10B586B000210091E9
:100A500001910291039100680F4988421AD10F4C0D
:100A6000A06940F00800A061A069694600F0080094
:100A70000490C020009012200190032003900848A9
:100A8000FFF77EFDE06940F40010E061E06900F4EA
:100A90000010049006B010BD005400400010024049
:100AA000000C01400248816802781144816070475F
:100AB00000000020074810B5016841F010010160F6
:100AC000032000F075F80F2000F006F800F024F87D
:100AD000002010BD0020024070B50D4D04464FF4BB
:100AE0007A712878B1FBF0F00A490968B1FBF0F09F
:100AF00000F0DCFA48B9102C07D200222146501E23
:100B000000F036F800206C6070BD012070BD000060
:100B1000000000200C0000200C4808B5816941F05D
:100B200001018161816901F001010091C16941F018
:100B30008051C161C06900F0805000900448416854
:100B400021F0E06141F00071416008BD00100240F9
:100B500000000140002809DB00F01F020121914044
:100B60004009800000F1E020C0F80011704700004B
:100B7000F0B40E4B1B680C46C3F30223C3F1070508
:100B8000042D00D90425191D072901D2002300E0F6
:100B9000DB1E012606FA05F1491E214099409E40C0
:100BA000761E16403143F0BC01F03CBB0CED00E07A
:100BB000064900F0070208684FF6FF03184040EAB4
:100BC0000220034A10430860704700000CED00E06B
:100BD0000000FA052DE9F0470F46050061D0434EAD
:100BE000306800F00700B84209D2306820F00700F2
:100BF00038433060306800F00700B84251D12868AF
:100C00003B4C810712D5400703D5606840F4E06093
:100C100060602878000703D5606840F46050606029
:100C20006068A96820F0F000084360602878C00779
:100C300028D06868012810D02168022810D08907C0
:100C400000292EDA616821F0030101436160FFF79A
:100C500099FD804641F288390DE021688903EFE76C
:100C60008901EDE7FFF78EFDA0EB0801494502D9A8
:100C70000320BDE8F0876068696800F00C00B0EB05
:100C8000810FEFD1306800F00700B8420BD930680F
:100C900020F0070038433060306800F00700B842A9
:100CA00001D00120E5E72878400705D56068E968AC
:100CB00020F4E060084360602878000706D560688B
:100CC000296920F4605040EAC100606000F028F813
:100CD0006168084AC1F30311515CC84006490860C5
:100CE00006480068FFF7F8FE0020C2E70020024037
:100CF00000100240042400080C0000200400002022
:100D00000448054900684968044AC1F30221515C5E
:100D1000C84070470C000020001002401424000856
:100D200012A185B00FC98DE80F0014A0144A006805
:100D300004905168134801F00C03042B10D0082BC9
:100D40000ED1C1F38343C9031DF803000AD55168CE
:100D500004AAC1F34041515C0A4A5043B0FBF1F090
:100D600005B0704708494843FAE70000020304054C
:100D7000060708090A0B0C0D0E0F101001020000E7
:100D80000010024000127A0000093D002DE9F84FE2
:100D9000040070D02078C04DC00749D06868C0F307
:100DA0008100012807D06868C0F38100022809D1BA
:100DB0006868C00306D52868800339D560680028B4
:100DC000E7D035E06068B0F5803F0BD010B1B0F5EA
:100DD000A02F11D0286820F480302860286820F4E3
:100DE000802002E0286840F480302860606890B17C
:100DF000FFF7C8FC06460AE0286840F48020286017
:100E0000F0E700BFFFF7BEFC801B642873D828689A
:100E10008003F7D50CE0FFF7B5FC064605E000BF00
:100E2000FFF7B0FC801B6428F0D828688003F7D453
:100E300020789A4E80074FF001094FF0000839D50D
:100E4000686810F00C0F07D06868C0F381000228B2
:100E500009D16868C00306D42868800714D52069C2
:100E6000012808D110E02069B0B1C6F80090FFF762
:100E700089FC074605E00AE1FFF784FCC01B022855
:100E8000C4D828688007F7D52868616920F0F80081
:100E900040EAC10028600DE0C6F80080FFF772FC50
:100EA000074604E0FFF76EFCC01B022823D8286821
:100EB0008007F7D4207800072CD57948A169D9B1EB
:100EC000C0F80090FFF75EFC074604E0FFF75AFC0D
:100ED000C01B02280FD8686A8007F7D571484FF405
:100EE000FA510068B0FBF1F0009000BF0098411E7D
:100EF0000091FAD20EE080E0C0F80080FFF742FCDB
:100F0000074604E0FFF73EFCC01B022875D8686A5C
:100F10008007F7D42078400760D5E8690027C00033
:100F200008D4E86940F08050E861E869012700F0E2
:100F3000805000905C480168C90513D4016883465D
:100F400041F480710160FFF71DFC824606E000BF9E
:100F5000FFF718FCA0EB0A0064284ED8DBF800006D
:100F6000C005F5D5E06801280AD008B1052813D0DE
:100F7000286A20F001002862286A20F0040002E0BC
:100F8000286A40F001002862E06841F2883B98B18D
:100F9000FFF7F8FB82460BE0286A40F00400286265
:100FA000EEE700BFFFF7EEFBA0EB0A0159455AD868
:100FB000286A8007F6D50CE0FFF7E4FB824605E0DF
:100FC000FFF7E0FBA0EB0A0159454CD8286A8007DF
:100FD000F6D41FB1E86920F08050E861E06988B379
:100FE0006968C1F38101022944D00228C6F86080F3
:100FF00004D0FFF7C7FB044638E034E0FFF7C2FB3C
:10100000074604E0FFF7BEFBC01B02282BD8286868
:101010008001F7D4206AB0F5803F05D16868A168E7
:1010200020F4003008436860D4E908010843696887
:1010300021F4741108436860C6F86090FFF7A2FBC2
:10104000044606E025E000BFFFF79CFB001B0228DA
:1010500009D828688001F7D51BE000BFFFF792FB95
:10106000001B022802D90320BDE8F88F2868800100
:10107000F4D40EE00128F7D06868226A00F48031C9
:10108000914204D1616A00F47010884201D00120BD
:10109000EAE70020E8E700000010024000004242BA
:1010A000800442420C0000200070004010B5401E39
:1010B000B0F1807F01D3012010BD4FF0E0246061CA
:1010C0000F21601701F0AEF80020A0610720206119
:1010D000002010BD7047704770B590F83C20012A81
:1010E00026D0012480F83C40022280F83D2003688D
:1010F0005A689D6822F070060A6832435A600D4BA8
:1011000002689A4208D0B2F1804F05D00A4B9A4249
:1011100002D00A4B9A4204D1496825F08003194352
:10112000916080F83D40002180F83C10084670BD79
:10113000022070BD002C0140000400400008004067
:1011400010B5040003D094F83D0010B107E0012071
:1011500010BD002084F83C00204600F01FF802205B
:1011600084F83D00211D206800F040FF012084F834
:10117000460084F83E0084F83F0084F8400084F87C
:10118000410084F8420084F8430084F8440084F865
:10119000450084F83D00002010BD000008B501683E
:1011A0001448B1F1804F14D0134A914220D1C16943
:1011B00041F00201C161C069002200F0020000900C
:1011C00011461D20FFF7D4FC1D20BDE80840FFF7A5
:1011D000C1BCC16941F00101C161C069002200F0D8
:1011E0000100009011461C20FFF7C2FC1C20ECE718
:1011F00008BD0000001002400004004090F83D10BF
:10120000012901D001207047022180F83D100168BA
:10121000CA6842F00102CA6000680B49884208D0DF
:10122000B0F1804F05D00949884202D00849884270
:1012300004D1816801F00701062903D0016841F05B
:101240000101016000207047002C014000040040B3
:101250000008004070B5044690F83C00012817D003
:10126000012584F83C50022084F83D002068826803
:1012700022F0770222F47F4282600868502830D042
:101280000DDC20284DD005DC98B310283BD148E078
:10129000022070BD302844D0402834D139E0602885
:1012A00028D0702806D0B0F5805F2CD0B0F5005F54
:1012B00029D10AE0CB68D1E90121206800F0D9FEEC
:1012C0002068816841F0770109E0CB68D1E901210C
:1012D000206800F0CEFE2068816841F48041816082
:1012E00011E0CA684968206800F078FF5021206842
:1012F00007E016E0CA684968206800F080FF6021B6
:10130000206800F0C0FE84F83D50002084F83C00C6
:1013100070BDCA684968206800F060FF40212068FD
:10132000EFE7226801461046EBE7704770B50446C8
:10133000006801694FF00005C943890715D4C168E9
:10134000C943890711D4E91E016101202077206873
:1013500080698007204602D0FFF7E7FF04E000F035
:10136000BDF8204600F04CF9257720680169C94393
:10137000490717D4C168C943490713D46FF0040162
:101380000161022020772068806910F4407F2046A8
:1013900002D0FFF7CAFF04E000F0A0F8204600F0FA
:1013A0002FF9257720680169C943090716D4C16858
:1013B000C943090712D46FF00801016104202077A6
:1013C0002068C0698007204602D0FFF7AEFF04E026
:1013D00000F084F8204600F013F9257720680169B1
:1013E000C943C90617D4C168C943C90613D46FF0ED
:1013F00010010161082020772068C06910F4407F47
:10140000204602D0FFF791FF04E000F067F8204685
:1014100000F0F6F8257720680169C943C90708D1AB
:10142000C168C943C90704D1891E0161204600F083
:1014300037F920680169C943090609D4C168C9435D
:10144000090605D46FF0800101612046FFF742FED6
:1014500020680169C943490609D4C168C9434906DE
:1014600005D46FF040010161204600F01AF92068B0
:101470000169C94389060BD4C168C943890607D4E9
:101480006FF0200101612046BDE87040FFF723BEE8
:1014900070BD000000B585B000210091019102915E
:1014A00003910068B0F1804F11D10A48816941F081
:1014B000040181618069694600F004000490042001
:1014C00000900220019003900348FFF759F805B0FF
:1014D00000BD00000010024000080140704770B5D8
:1014E000044690F83C000D4601280AD0012084F8FB
:1014F0003C0042B1042A18D0082A2AD00C2A4DD127
:1015000039E0022070BD206800F0C6FD20688169C6
:1015100041F0080181612068816921F00401816145
:10152000206881692A69114311E0206800F0DCFD20
:101530002068816941F4006181612068816921F43A
:1015400080618161206881692A6941EA02218161A3
:1015500024E0206800F0F4FD2068C16941F0080132
:10156000C1612068C16921F00401C1612068C169BD
:101570002A69114311E0206800F00EFE2068C1695D
:1015800041F40061C1612068C16921F48061C161D9
:101590002068C1692A6941EA0221C161002084F8FA
:1015A0003C0070BD10B5040003D094F83D0010B1AC
:1015B00007E0012010BD002084F83C00204600F028
:1015C0001EF8022084F83D00211D206800F00EFD69
:1015D000012084F8460084F83E0084F83F0084F837
:1015E000400084F8410084F8420084F8430084F805
:1015F000440084F8450084F83D00002010BD704789
:101600007047000010B50446022249B104290ED0EB
:10161000082913D094F84100012816D0012010BDEC
:1016200094F83E000128F9D184F83E200FE094F8A8
:101630003F000128F2D184F83F2008E094F84000F0
:101640000128EBD184F8402001E084F841200122F8
:10165000206800F001FD0F492068884203D1426CE8
:1016600042F4004242642068884208D0B0F1804FC2
:1016700005D00949884202D00849884204D18168CE
:1016800001F00701062903D0016841F00101016062
:10169000002010BD002C0140000400400008004064
:1016A00070477047FEE701684A69D24352050FD47C
:1016B0006FF480624A61002140F8301F202242739B
:1016C0008173026942F004020261017301207047D4
:1016D000002070472DE9F843044600680D46DDE917
:1016E000089701689846164641F4807101604B46A0
:1016F00000224FF001112046009700F065F848B134
:1017000020680068C00502D54FF4007020640320F3
:10171000BDE8F883216805F0FE0008613B464A46B3
:101720001549204600F084F888B92068416980692D
:1017300000903A464946204600F0C5F848B1206C72
:10174000042804D12068016841F40071016001207F
:10175000DEE7F5B2B8F1010F09D02168300A08615F
:101760003A464946204600F0AEF80028E7D1206806
:1017700005610020CCE700000200010070B51646AC
:101780000D4604460DE02046FFF78DFF08B101200D
:1017900070BD681C05D0FEF7F5FF801BA84207D876
:1017A00035B120684069C0434007ECD4002070BDCB
:1017B000002044F8300F20216173A073216941F0AB
:1017C000200121612073E2E72DE9F0471E46904693
:1017D0000D460446C1F30747DDF8209008E0701C71
:1017E00006D0FEF7CFFFA0EB0900B0420FD876B1CC
:1017F0002068012F18D0806925EA00000004000C41
:1018000014D000214145EAD00020BDE8F087002037
:1018100044F8300F20216173A073216941F0200149
:10182000216120730120F0E74069E5E70121E9E744
:101830002DE9F0479A4691460E46044600254FF0A2
:101840002008C1F3074725E020684069C0434005F0
:1018500014D42068016841F40071016021686FF4BC
:1018600080604861256384F83D8084F83E50206C98
:1018700040F00400206484F83C501FE0B9F1FF3FC1
:1018800008D0FEF77FFFA0EB0A0149450CD8B9F15B
:10189000000F09D02068012F13D0806926EA0000CC
:1018A0000004000C0BD0CFE744F8305F84F80D80C3
:1018B000A573206940F02000206125730120BDE858
:1018C000F0874069EAE770B516460D4604460DE01C
:1018D0002046FFF7E8FE08B1012070BD681C05D066
:1018E000FEF750FF801BA84207D835B12068406939
:1018F000C0430006ECD4002070BD002044F8300F37
:1019000020216173A073216941F0200121612073BE
:10191000E2E700003EB564248DE81C000A4601465B
:1019200001230248FEF7F8FF3EBD000044000020FE
:101930002DE9F04786B000254548009501950295B0
:101940000395816941F010018161816901F0100105
:101950000491816941F020018161816901F02001D8
:101960000491816941F004018161816901F0040100
:101970000491816941F0080181618069DFF8D490A8
:1019800000F008000490012208214846FEF7F5FE09
:10199000DFF8C4A04FF48057002239465046FEF7C6
:1019A000ECFE4FF40048012241465046FEF7E5FEAA
:1019B00001240820CDE900040326CDE9024669464A
:1019C0004846FEF7DDFD25480096CDE9010469464D
:1019D0005046FEF7D5FD0220CDE90250CDE9007456
:1019E00069465046FEF7CCFDCDE90084CDE90246BC
:1019F00069465046FEF7C4FD2820CDE9000569463A
:101A000002945046FEF7BCFD102000901448CDE92A
:101A1000010469465046FEF7B3FD00221146062038
:101A2000FFF7A6F80620FFF795F8002211460720D9
:101A3000FFF79EF80720FFF78DF8002211460A20D5
:101A4000FFF796F80A20FFF785F806B0BDE8F087A3
:101A50000010024000080140000C0140000031105D
:101A60000000111010B58EB000240794089409945A
:101A70000A940B941C2168460C94FEF72DFC1C481C
:101A80004FF08041C0E900148460C4600461846147
:101A9000FFF756FB08B172B6FEE74FF4805007908F
:101AA00007A91348FFF7D6FB08B172B6FEE7104846
:101AB000FFF778FD08B172B6FEE70B940BA90C484E
:101AC0000C94FFF709FB08B172B6FEE76020CDE980
:101AD000000402940822694605480494FFF7FFFCBD
:101AE00008B172B6FEE70248FFF7D4FC0EB010BD95
:101AF0009800002010B586B0002417480094019487
:101B00000294039404941349059401604721C0E9A9
:101B1000011440F2E731C0E903148461FFF710FBC0
:101B200008B172B6FEE74FF48050009069460A484B
:101B3000FFF790FB08B172B6FEE7049404A90648CB
:101B40000594FFF7C9FA002801D072B6FEE706B087
:101B500010BD000000040040E0000020FEE7FEE7AA
:101B60003CB5A3F12005059C5E2D26D8082A0DD092
:101B70000C2A15D0102A20D1104A02EB0312A2F52C
:101B80000072CDE900241023082214E00C4A02EB75
:101B9000C302A2F58072CDE90024082305220AE0E1
:101BA00003EB4302074B03EB8202A2F5C072CDE9BF
:101BB00000240C23062200F096F83CBD882B000878
:101BC0001C240008142700082DE9F05F4FF00008DE
:101BD000DFF85CA04546C146AAF5806B2946002087
:101BE00000F0D3F800240AEBC5170BEBC516395DDE
:101BF000305D88420ED0B8F1000F05D14FF00108DA
:101C00002946204600F0C1F8305D00F007F9305D4C
:101C1000385501E04FF0000806F80490641CE4B267
:101C2000802CE4D36D1CEDB2082DD7D3BDE8F09F16
:101C30004C05002010B5AE2000F0E8F8D52000F0EB
:101C4000E5F8502000F0E2F8A82000F0DFF83F208F
:101C500000F0DCF8D32000F0D9F8002000F0D6F82E
:101C6000402000F0D3F88D2000F0D0F8142000F0D0
:101C7000CDF8202000F0CAF8022000F0C7F8A1201B
:101C800000F0C4F8C02000F0C1F8D92000F0BEF880
:101C9000F12000F0BBF8DB2000F0B8F8302000F0B5
:101CA000B5F8A42000F0B2F8A62000F0AFF8AF20FD
:101CB00000F0ACF8BDE810400020AFF3008070B534
:101CC000064600242146002000F05FF8002530463B
:101CD00000F0A4F86D1CEDB2802DF8D3641CE4B2C2
:101CE000082CEFD370BD2DE9FF4F0026DDE90DBABA
:101CF000994690463746354643E000243AE01BF8C3
:101D000007008021F140084225D0BAF1060F1DD20C
:101D1000DFE80AF0030B0B030313019800222844A9
:101D2000C1B200982044C0B20EE0019801222844BC
:101D3000C1B200982044C0B206E0019802222844B3
:101D4000C1B200982044C0B200F070F8761CF6B220
:101D5000082E0BD00CE05FEA0A00DED00128DCD0B0
:101D60000228F3D0BAF1040FF0D1DEE700267F1C81
:101D7000641CE4B24445C2D30EB100267F1C6D1C26
:101D8000EDB24D45B9D3BDE8FF8F10B50446C1F1A2
:101D9000B700C0B200F03AF8102040EA141000F08A
:101DA00035F804F00F00BDE8104000F02FB82DE921
:101DB000F8430546DDF820901F4690460E46104633
:101DC000082A04D00C2804D0102A1AD103E00624D3
:101DD00017E0072415E0082413E02819802806D30B
:101DE00006EB0800C6B2402E00D30026002542466E
:101DF00031462846CDF80090FFF7B2FE2819C5B24B
:101E00007F1C3B78002BE8D1BDE8F88301B56A461A
:101E1000012300217820FFF77DFD08BD01B56A464A
:101E2000012340217820FFF775FD08BD10B58028FB
:101E300016D2402914D2CC0801F007018023CB40F0
:101E4000084901EBC414215C22B1012A04D0022A02
:101E500005D103E0994302E0194300E059402154C1
:101E600010BD00004C01002070472DE9FF4F0026F7
:101E7000044689B04FF0FF393246304613B1012B8A
:101E800070D101E0256807E0656805E00A2B01D103
:101E9000761CB6B2521C92B2AB5C002BF6D1A26893
:101EA0009B465118A16002D55946C4F808B0B1420A
:101EB00000DDA660D4E90221CB1C9A4201DA491E5A
:101EC000E1608A4204DDCA1CB24201DA491CE160C9
:101ED00006F10108B8F1040F01D9E26800E0002220
:101EE0000021E26007E06D1C2B780BB10A2BFAD1C0
:101EF000491C89B26D1C8A42F6DC00270DF1040AE8
:101F000023E0E168A2683944914201D13E2200E019
:101F100020220AF800205246401C03E01154401CC5
:101F200080B26D1C297809B10A29F7D102F800B0F6
:101F3000012000903807010E01AB10220020FFF7AE
:101F400036FF7F1C0020BFB26D1CB8F1040F01D911
:101F5000042100E0711CB942D3D80B98012801D1AB
:101F6000D4F808900DB04846BDE8F08F7047FEF7F2
:101F700099BD30B58FB028216846FEF7ADF9142120
:101F80000AA8FEF7A9F901210804CDE900100024F0
:101F9000029402250491CDE907504FF4E010099016
:101FA0006846FEF7F3FE08B172B6FEE70F20CDE9F2
:101FB0000A054FF48060CDE90C4002210AA80E9476
:101FC000FEF708FE002801D072B6FEE70FB030BD64
:101FD000704700000148FFF7A9B9000098000020F1
:101FE0000148FFF7A3B90000E0000020F0B5026847
:101FF000164B174C174D4FF08047984205D0B8420A
:1020000003D0A04201D0A84203D122F070064A6852
:102010003243984205D0B84203D0A04201D0A84232
:1020200003D122F44074CA6822434C6922F0800232
:10203000224302608A68C2620A688262984201D1C1
:102040000969016301214161F0BD0000002C0140DC
:10205000000400400008004010B501F01F030121FA
:10206000046A99408C430462016A9A4011430162F8
:1020700010BD10B5846842EA032224F47F440A4369
:102080002243826010BD826822F070020A4342F04F
:10209000070181607047000030B5026A22F001023A
:1020A0000262026A4368846924F073050C682C4359
:1020B00022F002058A682A430A4DA8420BD122F079
:1020C0000805CA6823F440732A434D6922F00402CC
:1020D0001D438B692B4343608461496841630262FD
:1020E00030BD0000002C014030B5026A22F0100221
:1020F0000262026A436884690D6824F4E64444EA93
:1021000005248D6822F0200242EA05120B4DA842F8
:102110000ED1CD6822F0800242EA05124D6923F407
:10212000406343EA85038D6922F0400243EA850358
:102130004360846149688163026230BD002C0140C4
:1021400030B5026A22F480720262036A4268C4698E
:1021500023F4007324F073050C682C438D6843EA64
:1021600005230C4DA8420ED1CD6823F4006343EA49
:1021700005234D6922F4405242EA05128D6923F489
:10218000806342EA05124260C4614968C163036228
:1021900030BD0000002C014030B5026A22F48052AC
:1021A0000262046A4268C3690D6823F4E64343EAA5
:1021B00005238D6824F4005444EA0534064DA842F2
:1021C00004D14D6922F4804242EA85124260C36123
:1021D00049680164046230BD002C014010B5036AF7
:1021E000046A24F001040462846924F0F00444EADF
:1021F000021423F00A020A438461026210BD10B582
:10220000036A23F0100303628369046A23F47043B2
:1022100043EA023224F0A00343EA01118261016221
:1022200010BDFEE70907090E002804DB00F1E020DD
:1022300080F80014704700F00F0000F1E02080F8F3
:10224000141D7047FEF736FCFFF793FEFFF770FB97
:102250000E480D494FF4804201600D494160002154
:102260008160C0E9031241618161C1610162FEF7D1
:102270008FFA08B172B6FEE7FFF7F4FBFFF73AFCFE
:1022800000F008F8FEE70000005400404400002081
:10229000A086010008B54B4E494F0820F7603082F8
:1022A000FFF7C8FC08214848FFF7ACF94748FEF79C
:1022B000A5FF002208214648FEF75FFA454C01259C
:1022C000A068002863D0012802D0022860D14CE029
:1022D0003C48328840A11430FDF77AFF394B002189
:1022E0001433082208460095FFF761FD39481C3079
:1022F000FEF711F96169421832483AA1143062615F
:10230000FDF766FF2F4B082214331146002000957D
:10231000FFF74DFD2B4836A11430A269FDF758FF99
:10232000284B08221433102100200095FFF73FFDB1
:10233000A08832A1401CA080224862881430FDF79A
:1023400047FF204B08221433382100200095FFF767
:102350002EFD3088FF281BD10220A060FEF712FA64
:1023600042F210710844206112E01A481C30FEF756
:10237000D2F801461748327823782430FFF775FDEC
:1023800000B9A560FEF7FEF92169884200D9A56071
:102390000C48FEF787F8FFF717FCFEF7F3F9014644
:1023A000E06881428CD900F57A70E0604FF400411A
:1023B0003846FEF7DAF9A08860800020A0807FE729
:1023C000000C01402801002098000020E0000020BF
:1023D0000008014010000020425554544F4E3A2549
:1023E00064000000454E434F44453A256400000018
:1023F00074657374636F64653A2564004650533A9C
:102400002564000000000000000000000102030439
:102410000607080900000000010203040000000094
:1024200000000000202020202000200050505000FC
:10243000000000005050F850F85050002078C07054
:1024400028F02000C0C810204098180040A0A040EC
:10245000A89068003020400000000000102040409C
:1024600040201000402010101020400020A87020B4
:1024700070A82000202020F820202000000000006C
:1024800060408000000000F8000000000000000034
:10249000006060000008102040800000708898A84C
:1024A000C8887000206020202020700070880830CC
:1024B0004080F800F8081030088870001030509004
:1024C000F8101000F880F00808887000384080F09C
:1024D00088887000F808102040404000708888709C
:1024E00088887000708888780810E00000606000BC
:1024F000606000000060600060608000102040802C
:10250000402010000000F800F800000040201008F3
:102510001020400070881020200020007088B8A88B
:10252000B880780020508888F8888800F08888F083
:102530008888F0007088808080887000F0888888A3
:102540008888F000F88080F08080F800F88080F0C3
:102550008080800070888080B8887800888888F8BB
:1025600088888800702020202020700038101010EB
:10257000109060008890A0C0A0908800808080802B
:102580008080F80088D8A8A8888888008888C8A88B
:10259000988888007088888888887000F08888F01B
:1025A0008080800070888888A8906800F08888F013
:1025B000A09088007088807008887000F820202023
:1025C00020202000888888888888700088888888EB
:1025D00088502000888888A8A8D88800888850203B
:1025E000508888008888502020202000F80810207B
:1025F0004080F800F0C0C0C0C0C0F00000804020A3
:102600001008000078181818181878002070A820F2
:1026100020202000002040F840200000201008006A
:10262000000000000000E010709068008080B0C8DA
:1026300088C8B00000007088808070000808689822
:102640008898680000007088F0807000304840F082
:102650004040400000007088887808F08080B0C852
:1026600088888800200000202020200010000030F2
:1026700010101060808090A0C0A0980060202020E2
:1026800020207000000050A8A8A8A8000000B048B2
:102690004848480000007088888870000000F08872
:1026A00088F0808000007888887808080000B048AA
:1026B00040404000000078807008F0004040F84042
:1026C000404830000000909090906800000088889A
:1026D000885020000000A8A8A8A85000000088503A
:1026E0002050880000008888986808F00000F810E2
:1026F0002040F80020404080404020002020200062
:10270000202020002010100810102000000040A8F9
:1027100010000000000000000000000000000000A9
:10272000001010101010000010000000006C48484D
:102730000000000000000000001414287C287C2801
:102740005050000000103840403848701010000011
:10275000002050200C700814080000000000001831
:102760002020544834000000001010101000000019
:1027700000000000000808101010101010080800D9
:1027800000202010101010101020200000107C10CD
:1027900028280000000000000000101010FC10109D
:1027A00010000000000000000000001810302000A1
:1027B00000000000007C000000000000000000009D
:1027C0000000003030000000000404080810102051
:1027D0002040000000384444444444443800000091
:1027E00000301010101010107C000000003844045D
:1027F000081020447C0000000038440418040444FD
:1028000038000000000C141424447C040C00000068
:10281000003C20203804044438000000001C204004
:102820007844444438000000007C44040808081040
:10283000100000000038444438444444380000008C
:1028400000384444443C040870000000000000309C
:1028500030000030300000000000001818000018A0
:102860003020000000000C10608060100C000000A0
:10287000000000007C007C00000000000000C02080
:1028800018041820C00000000000182404081000DC
:10289000300000003844444C54544C40443800004C
:1028A0000030102828287C44EC00000000F8444444
:1028B00078444444F8000000003C44404040404418
:1028C0003800000000F0484444444448F000000050
:1028D00000FC445070504044FC000000007C202864
:1028E0003828202070000000003C4440404C444404
:1028F0003800000000EC44447C444444EC000000F8
:10290000007C1010101010107C000000003C080823
:10291000084848483000000000EC444850704844E3
:10292000E400000000702020202024247C0000000F
:1029300000EC6C6C54544444EC00000000EC646403
:102940005454544CEC000000003844444444444483
:102950003800000000782424243820207000000073
:102960000038444444444444381C000000F84444C3
:1029700044784844E000000000344C4038040464CB
:102980005800000000FC90101010101038000000DB
:1029900000EC4444444444443800000000EC444407
:1029A000282828101000000000EC444454545454CB
:1029B0002800000000C4442810102844C40000006F
:1029C00000EC44282810101038000000007C440857
:1029D000101020447C0000000038202020202020FF
:1029E0002020380000402020201010080808000097
:1029F00000380808080808080808380000101028DF
:102A00004400000000000000000000000000000082
:102A1000000000FC001008000000000000000000A2
:102A200000000038443C44443C00000000C04058D2
:102A300064444444F80000000000003C444040442A
:102A400038000000000C04344C4444443C000000B6
:102A500000000038447C40403C000000001C207C0A
:102A6000202020207C000000000000344C4444441E
:102A70003C04380000C0405864444444EC0000006A
:102A800000100070101010107C0000000010007882
:102A9000080808080808700000C0405C48705048EA
:102AA000DC00000000301010101010107C0000003E
:102AB000000000E854545454FC000000000000D80A
:102AC00064444444EC0000000000003844444444A2
:102AD00038000000000000D8644444447840E0001E
:102AE000000000344C4444443C040C000000006CE2
:102AF000302020207C0000000000003C44380444CA
:102B0000780000000000207C202020201C00000015
:102B1000000000CC4444444C34000000000000ECB1
:102B20004444282810000000000000EC4454545491
:102B300028000000000000CC48303048CC000000E5
:102B4000000000EC44242818101078000000007CDD
:102B5000481020447C0000000008101010102010C5
:102B600010100800001010101010101010100000AD
:102B7000002010101010081010102000000000009D
:102B800000245800000000000000000000000000C9
:102B90000000000000000000000000183C3C3C1851
:102BA0001818001818000000006666666624000009
:102BB0000000000000000000000000006C6CFE6CD3
:102BC0006C6CFE6C6C0000001818187CC6C2C07CCF
:102BD0000686C67C181800000000000000C2C60C63
:102BE000183060C686000000000000386C6C387633
:102BF000DCCCCCCC760000000030303030600000FF
:102C000000000000000000000000000C1830303010
:102C1000303030180C00000000000030180C0C0C94
:102C20000C0C0C1830000000000000000000663C96
:102C3000FF3C6600000000000000000000001818C3
:102C40007E181800000000000000000000000000D6
:102C500000001818183000000000000000000000FC
:102C6000FE00000000000000000000000000000066
:102C70000000001818000000000000000002060C10
:102C8000183060C0800000000000007CC6C6CED6B0
:102C9000D6E6C6C67C000000000000183878181878
:102CA000181818187E0000000000007CC6060C18DA
:102CB0003060C0C6FE0000000000007CC606063C76
:102CC000060606C67C0000000000000C1C3C6CCC14
:102CD000FE0C0C0C1E000000000000FEC0C0C0FC7A
:102CE0000E0606C67C0000000000003860C0C0FC74
:102CF000C6C6C6C67C000000000000FEC606060C64
:102D000018303030300000000000007CC6C6C67CA1
:102D1000C6C6C6C67C0000000000007CC6C6C67ED3
:102D20000606060C780000000000000000181800DD
:102D30000000181800000000000000000018180033
:102D4000000018183000000000000000060C1830C9
:102D50006030180C0600000000000000000000FEBB
:102D60000000FE0000000000000000006030180CB1
:102D7000060C1830600000000000007CC6C60C186D
:102D80001818001818000000000000007CC6C6DEFD
:102D9000DEDEDCC07C00000000000010386CC6C61F
:102DA000FEC6C6C6C6000000000000FC6666667C63
:102DB00066666666FC0000000000003C66C2C0C09B
:102DC000C0C0C2663C000000000000F86C66666689
:102DD0006666666CF8000000000000FE66626878B7
:102DE00068606266FE000000000000FE66626878AF
:102DF00068606060F00000000000003C66C2C0C077
:102E0000DEC6C6663A000000000000C6C6C6C6FEA2
:102E1000C6C6C6C6C60000000000003C1818181838
:102E2000181818183C0000000000001E0C0C0C0CB8
:102E30000CCCCCCC78000000000000E6666C6C780E
:102E4000786C6666E6000000000000F0606060607C
:102E500060606266FE000000000000C6EEFEFED666
:102E6000C6C6C6C6C6000000000000C6E6F6FEDE06
:102E7000CEC6C6C6C6000000000000386CC6C6C676
:102E8000C6C6C66C38000000000000FC6666667CA2
:102E900060606060F00000000000007CC6C6C6C62E
:102EA000C6C6D6DE7C0C0E00000000FC6666667CA2
:102EB0006C666666E60000000000007CC6C66038EE
:102EC0000C06C6C67C0000000000007E7E5A181862
:102ED000181818183C000000000000C6C6C6C6C678
:102EE000C6C6C6C67C000000000000C6C6C6C6C670
:102EF000C6C66C3810000000000000C6C6C6C6C6B4
:102F0000D6D6FE6C6C000000000000C6C66C6C38A3
:102F1000386C6CC6C6000000000000666666663C41
:102F2000181818183C000000000000FEC6860C1897
:102F30003060C2C6FE0000000000003C303030307F
:102F4000303030303C0000000000000080C0E070F5
:102F5000381C0E06020000000000003C0C0C0C0C9B
:102F60000C0C0C0C3C0000001038386CC600000043
:102F70000000000000000000000000000000000051
:102F8000000000000000FF0030303018000000009A
:102F90000000000000000000000000000000780CAD
:102FA0007CCCCCCC76000000000000E06060786C47
:102FB00066666666DC0000000000000000007CC65B
:102FC000C0C0C0C67C0000000000001C0C0C3C6CA3
:102FD000CCCCCCCC760000000000000000007CC609
:102FE000FEC0C0C67C000000000000386C6460F0C9
:102FF00060606060F000000000000000000076CC1F
:10300000CCCCCCCC7C0CCC78000000E060606C7642
:1030100066666666E60000000000001818003818B2
:10302000181818183C0000000000000606000E06E4
:10303000060606060666663C000000E06060666CF8
:1030400078786C66E6000000000000381818181840
:10305000181818183C000000000000000000ECFEEA
:10306000D6D6D6D6D6000000000000000000DC66F0
:1030700066666666660000000000000000007CC610
:10308000C6C6C6C67C000000000000000000DC666A
:10309000666666667C6060F000000000000076CC2A
:1030A000CCCCCCCC7C0C0C1E000000000000DC76EC
:1030B00062606060F00000000000000000007CC65C
:1030C00060380CC67C000000000000103030FC307E
:1030D000303030361C000000000000000000CCCC76
:1030E000CCCCCCCC7600000000000000000066666E
:1030F0006666663C18000000000000000000C6C6BE
:10310000C6D6D6FE6C000000000000000000C66CB1
:103110003838386CC6000000000000000000C6C649
:10312000C6C6C6C67E060CF8000000000000FECC35
:10313000183060C6FE0000000000000E181818705D
:10314000181818180E0000000000001818181800B1
:103150001818181818000000000000701818180E31
:10316000181818187000000000000076DC0000003D
:103170000000000000000000E8BF94E59B9E0A00EC
:103180004261636B0A496E7075740A42757A7A659A
:10319000720A4F4C45440A4175746F0A5479706540
:1031A0000A4C616E67756167650A41626F757400EC
:1031B000D031000800000020440000002801000871
:1031C00014320008440000206C0F00004401000885
:1031D0000100000010000000000000000024F400C6
:1031E00000000000000000000000000000000000DF
:1031F00000000000000000000000000000000000CF
:103200000000000080310008783100080000000054
:0432100000000000BA
:04000005080000ED02
:00000001FF
