:020000040800F2
:10000000280C0020C90100086713000839100008F7
:100010006513000805050008D1160008000000005F
:100020000000000000000000000000006B16000847
:100030000705000800000000691600086D1600089A
:10004000E3010008E3010008E3010008E301000800
:10005000E3010008E3010008E3010008E3010008F0
:10006000E3010008E3010008E3010008E3010008E0
:10007000E3010008E3010008E3010008E3010008D0
:10008000E3010008E3010008E3010008E3010008C0
:10009000E3010008E3010008E3010008E3010008B0
:1000A000E3010008E3010008E3010008E3010008A0
:1000B000E3010008E3010008E3010008E301000890
:1000C000E3010008E3010008E3010008E301000880
:1000D000E3010008E3010008E3010008E301000870
:1000E000E3010008E3010008E301000800F002F862
:1000F00000F041F80AA090E8000C82448344AAF181
:100100000107DA4501D100F036F8AFF2090EBAE87E
:100110000F0013F0010F18BFFB1A43F0010318473B
:10012000EC2400000C250000103A24BF78C878C1E8
:10013000FAD8520724BF30C830C144BF04680C60ED
:10014000704700000023002400250026103A28BF35
:1001500078C1FBD8520728BF30C148BF0B60704739
:10016000642900F09980002070471FB500F0E5F881
:100170001FBD10B510BD00F08AF91146FFF7F5FF5D
:1001800001F0B8FA00F0A8F903B4FFF7F2FF03BCDE
:1001900000F0B2F90B49D1F800C04A685CF8043BA2
:1001A0001068184442F8040B8C4528BFA1F1DC0C00
:1001B0008A4228BFA1F1DC02C1F800C04A6020F0E9
:1001C00000407047C00500200948804709480047A3
:1001D000FEE7FEE7FEE7FEE7FEE7FEE7FEE7FEE7F7
:1001E000FEE7FEE704480549054A064B7047000054
:1001F000CF160008ED00000828060020280C00207B
:1002000028080020280800200FB41CB5074B06AAB8
:100210007B4469460090059800F021F9002069466A
:1002200000F030F91CBC5DF814FB00007102000006
:100230002DE9F0410E460446002020622046E16888
:10024000884730B3252805D0D4E901219047206A9A
:10025000401CF2E7E168204600278847050018D0D7
:10026000A5F14100192802D820354FF40067324625
:10027000294620462760FFF773FF40B1012804D0CC
:10028000F61D26F007060836D8E7361DD6E72846BD
:10029000DAE7206ABDE8F0812DE9F0410646002446
:1002A00010687529314616A510D0AFF300800028DC
:1002B00002DA404213A507E031688A0701D512A58A
:1002C00002E0490704D511A5012401E0AFF3008045
:1002D00000210A2206F1240709E0B0FBF2FCB0FB82
:1002E000F2F302FB1C00303078541846491C0028F9
:1002F000F3D123462A463046BDE8F04100F050B81D
:10030000000000002D0000002B0000002000000075
:100310000B4910B5A1F17C020A4CC2E93712372112
:1003200006E000EB104342F82130074B00FB03408E
:100330000B1EA1F10101F4DC10BD0120E8E7000073
:1003400060050020E119D666CD0D01004FF00002D6
:1003500000B5134694469646203922BFA0E80C50BB
:10036000A0E80C50B1F12001BFF4F7AF090728BF96
:10037000A0E80C5048BF0CC05DF804EB890028BF12
:1003800040F8042B08BF704748BF20F8022B11F03B
:10039000804F18BF00F8012B7047704770477047B7
:1003A0002DE9F0470D4699469246044600F124088F
:1003B0000168880604D5E06921F01001216000E0A1
:1003C0000120A84201DD471B00E00027A1697A193E
:1003D00002EB0900081AA0612078C00602D420466A
:1003E000AFF30080002608E0D4E901211AF80600E6
:1003F0009047206A401C761C20624E45F4DB207832
:10040000C0060AD52046AFF3008006E0D4E90121FA
:1004100030209047206A401C2062381EA7F1010757
:10042000F4DC07E0D4E9012118F805009047206AC0
:10043000401C2062281EA5F10105F3DC2046AFF325
:1004400000802078000602D50220BDE8F087012058
:10045000FBE7000001694A1C02610878704700B59B
:100460008FB0CDE901310021059105497944CDE9ED
:10047000031011466846FFF7DBFE0FB000BD000019
:10048000E5FFFFFF0A6802F8010B0A607047754636
:1004900000F02CF8AE4605006946534620F00700F0
:1004A000854618B020B5FFF79DFEBDE820404FF00F
:1004B00000064FF000074FF000084FF0000B21F04E
:1004C0000701AC46ACE8C009ACE8C009ACE8C0091B
:1004D000ACE8C0098D46704710B50446AFF3008004
:1004E0002046BDE81040FFF74FBE000000487047AF
:1004F000C80500207047000001491820ABBEFEE788
:1005000026000200FEE770472DE9F84FDFF8B891AA
:10051000002409F1040A0AF1040B23460F270BF10A
:10052000040EC9E00125A5402A40AA427DD1674EAC
:10053000D1F804C0ACEB0608B44532D014DCBCF1F1
:10054000030F3AD009DCBCF1000F2AD0BCF1010F37
:100550001CD0BCF1020F31D11DE0BCF1110F17D03E
:10056000BCF1120F2AD119E0B8F5881F19D006DCAA
:10057000B8F5803F15D0B8F5801F1FD111E0B8F550
:10058000001F0ED0B8F5041F18D10AE0CB6815E0A3
:10059000CB681B1D12E0CB6808330FE0CB680C332F
:1005A0000CE08B682BB1012B4FF0080303D04561A1
:1005B00004E0042302E0056100E00023FF2A01D8E3
:1005C000064601E000F104064FEA840501D9A5F1D1
:1005D0002005D6F8008007FA05FC28EA0C0803FA83
:1005E00005F548EA0508C6F800804D68ED0062D5BB
:1005F000374DAE6946F00106AE61AD6924F00306E1
:1006000005F001050095334D06EB050CDCF80850AC
:10061000A607360F07FA06F825EA0805DFF8B880BE
:10062000404503D14FF0000817E044E0DFF8AC800C
:10063000404502D14FF001080FE0DFF8A4804045AB
:1006400002D14FF0020808E0DFF89880404502D15F
:100650004FF0030801E04FF0040808FA06F848EAF2
:100660000508CCF808804D68D9F80060ED034D46C8
:1006700001D5164300E096432E604D68DAF800601D
:10068000AD03554601D5164300E096432E604D68F4
:10069000DBF80060ED025D4601D5164300E09643AD
:1006A0002E604D68DEF80060AD02754601D5164338
:1006B00000E096432E60641C0D682A46E5407FF4F6
:1006C00031AFBDE8F88F00000004014000001110B8
:1006D000001002400000014000080140000C0140F1
:1006E0000010014000140140C26821EA02030A40E0
:1006F00043EA0241016170470AB101617047090490
:10070000FBE70000014880687047000000000020FF
:1007100070B5040025D094F83D00002520B984F878
:100720003C50204600F050F9242084F83D00206819
:10073000016821F0010101602068016841F4004175
:1007400001602068016821F40041016000F08AFA2C
:100750004D4A6168914201D84C4900E04C498842B9
:1007600001D2012070BD4B492368B0FBF1F15E68F6
:1007700026F03F060E435E606368934206D94FF44D
:10078000967359434FF47A73B1FBF3F12368491C14
:100790001E6A26F03F06314319626168914210D803
:1007A0004900401EB0FBF1F2521CC2F30B02042AB6
:1007B00001D2042022E0B0FBF1F0401CC0F30B009A
:1007C0001CE0A268F2B301EBC10303EB0116431E68
:1007D000B3FBF6F35B1C43F480431B0549D092B393
:1007E00001EBC10202EB0111401EB0FBF1F0401C15
:1007F000C0F30B0040F4804040F400402168CA6917
:100800004CF6FF739A431043C861D4E907100143C3
:100810002068026822F0C00211430160D4E903019C
:1008200001432068826848F2FF339A431143816094
:10083000D4E9050108432168CA6822F0FF02104389
:10084000C86001E00EE016E02068016841F0010197
:1008500001602564202084F83D00256384F83E5023
:10086000002070BD01EB4106431EB3FBF6F35B1C99
:10087000B3E70120C2E701EB4101401EB0FBF1F0FC
:10088000401CC0F30B00B7E7A086010080841E0067
:1008900000093D0040420F002DE9FF4F83B09A460A
:1008A000DDE9119793460446DDF84080FFF72AFF03
:1008B000054694F83D0020287FD1192301224049A4
:1008C0002046009500F04AFC002876D194F83C00C0
:1008D000012872D0012084F83C0020680168C90713
:1008E00003D1016841F0010101602068016821F431
:1008F00000610160212084F83D00402084F83E0022
:1009000000262664C4F82480A4F82A90608D2085EF
:100910002C48E062CDE9007553465A4620460499BA
:1009200000F0A2FB70B930E02A463946204600F0BC
:1009300094FC58B1206C042804D12068016841F46B
:1009400000710160012007B0BDE8F08F606A216886
:1009500000780861606A401C6062218D491E89B27E
:100960002185628D521E628522685369DB435B07D5
:100970000BD469B100781061606A401C6062208D00
:10098000401E2085608D401E6085208D0028CBD1C3
:100990002A463946204600F0BBFB0028CAD154F84D
:1009A0003D0B016841F400710160202004F81E092C
:1009B000E67766770020C6E7FFE70220C3E700007E
:1009C000020010000000FFFF10B586B0002100916A
:1009D00001910291039100680F4988421AD10F4C8E
:1009E000A06940F00800A061A069694600F0080015
:1009F0000490C0200090122001900320039008482A
:100A0000FFF782FDE06940F40010E061E06900F466
:100A10000010049006B010BD0054004000100240C9
:100A2000000C0140024881680278114481607047DF
:100A300000000020074810B5016841F01001016076
:100A4000032000F067F80F2000F006F800F024F80B
:100A5000002010BD0020024070B50D4D04464FF43B
:100A60007A712878B1FBF0F00A490968B1FBF0F01F
:100A700000F0CEFA48B9102C07D200222146501EB1
:100A800000F028F800206C6070BD012070BD0000EF
:100A9000000000200C0000200C4808B5816941F0DE
:100AA00001018161816901F001010091C16941F099
:100AB0008051C161C06900F08050009004484168D5
:100AC00021F0E06141F00071416008BD001002407A
:100AD00000000140F0B40E4B1B680C46C3F3022328
:100AE000C3F10705042D00D90425191D072901D2DA
:100AF000002300E0DB1E012606FA05F1491E214015
:100B000099409E40761E16403143F0BC00F0E1BD96
:100B10000CED00E0064900F0070208684FF6FF03FD
:100B2000184040EA0220034A104308607047000062
:100B30000CED00E00000FA052DE9F0470F46050036
:100B400061D0434E306800F00700B84209D23068E7
:100B500020F0070038433060306800F00700B842EA
:100B600051D128683B4C810712D5400703D56068F6
:100B700040F4E06060602878000703D5606840F4C6
:100B8000605060606068A96820F0F0000843606011
:100B90002878C00728D06868012810D0216802286A
:100BA00010D0890700292EDA616821F00301014382
:100BB0006160FFF7A7FD804641F288390DE02168AA
:100BC0008903EFE78901EDE7FFF79CFDA0EB080142
:100BD000494502D90320BDE8F0876068696800F0E4
:100BE0000C00B0EB810FEFD1306800F00700B84285
:100BF0000BD9306820F0070038433060306800F0CF
:100C00000700B84201D00120E5E72878400705D564
:100C10006068E96820F4E0600843606028780007B5
:100C200006D56068296920F4605040EAC100606020
:100C300000F028F86168084AC1F30311515CC8400C
:100C40000649086006480068FFF706FF0020C2E773
:100C50000020024000100240001800080C00002094
:100C6000040000200448054900684968044AC1F3AB
:100C70000221515CC84070470C0000200010024067
:100C80001018000812A185B00FC98DE80F0014A03C
:100C9000144A006804905168134801F00C03042BB7
:100CA00010D0082B0ED1C1F38343C9031DF80300F4
:100CB0000AD5516804AAC1F34041515C0A4A504325
:100CC000B0FBF1F005B0704708494843FAE700006F
:100CD00002030405060708090A0B0C0D0E0F10107D
:100CE000010200000010024000127A0000093D00DD
:100CF0002DE9F84F040070D02078C04DC00749D0CE
:100D00006868C0F38100012807D06868C0F38100DB
:100D1000022809D16868C00306D52868800339D540
:100D200060680028E7D035E06068B0F5803F0BD000
:100D300010B1B0F5A02F11D0286820F480302860C1
:100D4000286820F4802002E0286840F48030286081
:100D5000606890B1FFF7D6FC06460AE0286840F4C8
:100D600080202860F0E700BFFFF7CCFC801B6428E0
:100D700073D828688003F7D50CE0FFF7C3FC06465C
:100D800005E000BFFFF7BEFC801B6428F0D8286890
:100D90008003F7D420789A4E80074FF001094FF076
:100DA000000839D5686810F00C0F07D06868C0F3E8
:100DB0008100022809D16868C00306D4286880072A
:100DC00014D52069012808D110E02069B0B1C6F817
:100DD0000090FFF797FC074605E00AE1FFF792FC59
:100DE000C01B0228C4D828688007F7D52868616925
:100DF00020F0F80040EAC10028600DE0C6F800804D
:100E0000FFF780FC074604E0FFF77CFCC01B0228CC
:100E100023D828688007F7D4207800072CD5794894
:100E2000A169D9B1C0F80090FFF76CFC074604E057
:100E3000FFF768FCC01B02280FD8686A8007F7D547
:100E400071484FF4FA510068B0FBF1F0009000BF18
:100E50000098411E0091FAD20EE080E0C0F80080B8
:100E6000FFF750FC074604E0FFF74CFCC01B0228CC
:100E700075D8686A8007F7D42078400760D5E8699C
:100E80000027C00008D4E86940F08050E861E869B4
:100E9000012700F0805000905C480168C90513D418
:100EA0000168834641F480710160FFF72BFC8246A4
:100EB00006E000BFFFF726FCA0EB0A0064284ED82E
:100EC000DBF80000C005F5D5E06801280AD008B1BC
:100ED000052813D0286A20F001002862286A20F033
:100EE000040002E0286A40F001002862E06841F254
:100EF000883B98B1FFF706FC82460BE0286A40F079
:100F000004002862EEE700BFFFF7FCFBA0EB0A013C
:100F100059455AD8286A8007F6D50CE0FFF7F2FB4E
:100F2000824605E0FFF7EEFBA0EB0A0159454CD8DD
:100F3000286A8007F6D41FB1E86920F08050E86184
:100F4000E06988B36968C1F38101022944D00228AD
:100F5000C6F8608004D0FFF7D5FB044638E034E0E3
:100F6000FFF7D0FB074604E0FFF7CCFBC01B0228CD
:100F70002BD828688001F7D4206AB0F5803F05D1CE
:100F80006868A16820F4003008436860D4E908016B
:100F90000843696821F4741108436860C6F86090DA
:100FA000FFF7B0FB044606E025E000BFFFF7AAFB11
:100FB000001B022809D828688001F7D51BE000BF74
:100FC000FFF7A0FB001B022802D90320BDE8F88F21
:100FD00028688001F4D40EE00128F7D06868226AFE
:100FE00000F48031914204D1616A00F470108842AB
:100FF00001D00120EAE70020E8E7000000100240ED
:1010000000004242800442420C0000200070004078
:1010100010B5401EB0F1807F01D3012010BD4FF00C
:10102000E02460610F21601700F053FB0020A061F5
:1010300007202061002010BDFEE701684A69D24305
:1010400052050FD46FF480624A61002140F8301FCE
:10105000202242738173026942F00402026101732B
:1010600001207047002070472DE9F84304460068CE
:101070000D46DDE9089701689846164641F48071EF
:1010800001604B4600224FF001112046009700F00E
:1010900065F848B120680068C00502D54FF40070BB
:1010A00020640320BDE8F883216805F0FE00086194
:1010B0003B464A461549204600F084F888B9206826
:1010C0004169806900903A464946204600F0C5F8DB
:1010D00048B1206C042804D12068016841F40071F3
:1010E00001600120DEE7F5B2B8F1010F09D02168F7
:1010F000300A08613A464946204600F0AEF800281A
:10110000E7D1206805610020CCE700000200010063
:1011100070B516460D4604460DE02046FFF78DFFDC
:1011200008B1012070BD681C05D0FFF7EBFA801BE9
:10113000A84207D835B120684069C0434007ECD4C5
:10114000002070BD002044F8300F20216173A0738F
:10115000216941F0200121612073E2E72DE9F04788
:101160001E4690460D460446C1F30747DDF8209021
:1011700008E0701C06D0FFF7C5FAA0EB0900B042EA
:101180000FD876B12068012F18D0806925EA0000B9
:101190000004000C14D000214145EAD00020BDE835
:1011A000F087002044F8300F20216173A07321697B
:1011B00041F02001216120730120F0E74069E5E75B
:1011C0000121E9E72DE9F0479A4691460E4604468B
:1011D00000254FF02008C1F3074725E0206840694B
:1011E000C043400514D42068016841F400710160D7
:1011F00021686FF480604861256384F83D8084F83D
:101200003E50206C40F00400206484F83C501FE005
:10121000B9F1FF3F08D0FFF775FAA0EB0A01494585
:101220000CD8B9F1000F09D02068012F13D08069C4
:1012300026EA00000004000C0BD0CFE744F8305F32
:1012400084F80D80A573206940F02000206125738B
:101250000120BDE8F0874069EAE770B516460D4603
:1012600004460DE02046FFF7E8FE08B1012070BDFE
:10127000681C05D0FFF746FA801BA84207D835B195
:1012800020684069C0430006ECD4002070BD0020F7
:1012900044F8300F20216173A073216941F02001CF
:1012A00021612073E2E700003EB564248DE81C0054
:1012B0000A46014601230248FFF7EEFA3EBD000050
:1012C00010000020F0B585B0002524480095019558
:1012D00002950395816941F010018161816901F0F6
:1012E00010010491816941F020018161816901F05F
:1012F00020010491816941F008018161816901F057
:1013000008010491816941F0040181618069144FF1
:1013100000F004004FF48054049000222146384627
:10132000FFF7EAF90122D60331463846FFF7E4F920
:101330000220CDE902500094012469460194384608
:10134000FFF7E2F80320CDE90240CDE900646946E9
:101350003846FFF7D9F805B0F0BD00000010024094
:10136000000C0140FEE7FEE73CB5A3F12005059C1B
:101370005E2D26D8082A0DD00C2A15D0102A20D18F
:10138000104A02EB0312A2F50072CDE900241023EB
:10139000082214E00C4A02EBC302A2F58072CDE9E8
:1013A0000024082305220AE003EB4302074B03EB6A
:1013B0008202A2F5C072CDE900240C23062200F0BF
:1013C00094F83CBD1A200008AE180008A61B0008BF
:1013D0002DE9F0470027DFF858903D464FF0800A8E
:1013E0002946002000F0CBF812482AFA05F600241E
:1013F00000EBC51819F8041031420DD0B14309F8BB
:10140000041027B901272946204600F0B8F818F83B
:10141000040000F0F9F800E00027641CE4B2802C1E
:10142000E8D36D1CEDB2082DDAD3BDE8F0870000DB
:10143000640400206400002010B5AE2000F0DCF849
:10144000D52000F0D9F8502000F0D6F8A82000F000
:10145000D3F83F2000F0D0F8D32000F0CDF80020E2
:1014600000F0CAF8402000F0C7F88D2000F0C4F862
:10147000142000F0C1F8202000F0BEF8022000F097
:10148000BBF8A12000F0B8F8C02000F0B5F8D920D2
:1014900000F0B2F8F12000F0AFF8DB2000F0ACF87B
:1014A000302000F0A9F8A42000F0A6F8A62000F053
:1014B000A3F8AF2000F0A0F8BDE810400020AFF383
:1014C000008070B5064600242146002000F057F841
:1014D0000025304600F098F86D1CEDB2802DF8D351
:1014E000641CE4B2082CEFD370BD2DE9FF4F002639
:1014F000DDE90DBA99469046374635463BE0002473
:1015000032E01BF807008021F14008421DD0BAF1FB
:10151000050F15D2DFE80AF0030B0B030300019857
:1015200000222844C1B200982044C0B206E00198CD
:1015300001222844C1B200982044C0B200F06CF8E7
:10154000761CF6B2082E0BD00CE05FEA0A00E6D05B
:101550000128E4D00228F3D0BAF1040FF0D1E6E775
:1015600000267F1C641CE4B24445CAD30EB1002699
:101570007F1C6D1CEDB24D45C1D3BDE8FF8F10B58A
:101580000446C1F1B700C0B200F036F8102040EABE
:10159000141000F031F804F00F00BDE8104000F026
:1015A0002BB82DE9F8411E4617460D460446DDF8D6
:1015B0001C801CE0802C05D3E819C5B2082D00D38F
:1015C000002500243A4629462046CDF80080FFF742
:1015D000CBFE761C082F04D00C2F04D0102F06D180
:1015E00003E0A41D02E0E41D00E00834E4B2337817
:1015F000002BDFD1BDE8F88101B56A460123002147
:101600007820FFF751FE08BD01B56A46012340214D
:101610007820FFF749FE08BDF0B580281FD2402989
:101620001DD2CD0801F00701802424FA01F30C49F2
:1016300001EBC516315C0F4622B1012A04D0022A03
:1016400005D103E0994302E0194300E059408F427D
:1016500005D031540349EC400A5C22430A54F0BDE2
:10166000640000206404002070477047FFF7DAB977
:1016700030B58FB028216846FEF768FE14210AA80D
:10168000FEF764FE01210804CDE900100024029455
:1016900002250491CDE907504FF4E0100990684607
:1016A000FFF726FB08B172B6FEE70F20CDE90A0569
:1016B0004FF48060CDE90C4002210AA80E94FFF798
:1016C0003BFA002801D072B6FEE70FB030BD70477C
:1016D000FEE70907090E002804DB00F1E02080F88E
:1016E0000014704700F00F0000F1E02080F8141D96
:1016F00070470000FFF79EF9FFF7BAFFFFF7E2FD22
:101700000C480B494FF4804201600B4941600021B5
:101710008160C0E9031241618161C1610162FEF72C
:10172000F7FF08B172B6FEE700F008F8FEE7000028
:101730000054004010000020A086010086B0002662
:1017400037463446FFF778FEDFF894800125CDE96F
:101750000085641C0021A4B21E2324220846FFF742
:10176000C4FE1E211FA3102208460095FFF719FF93
:101770001CA30C222E211E200095FFF712FF19A397
:10178000082200211E200095FFF70BFF3A4617A103
:1017900002A8FEF739FD02AB082200214020009587
:1017A000FFF7FFFEFEF7F6FC024612A102A8FEF7C5
:1017B0002BFD082202AB11461E200095FFF7F1FE1B
:1017C000FFF706FEFEF79EFFB042C0D94FF400417E
:1017D0000A4806F57A76FEF787FF27460024B6E723
:1017E0001818000841424344000000004650533A94
:1017F0002564000052414E443A256400000C01402B
:1018000000000000000000000102030406070809B0
:101810000000000001020304000002000F00000F9E
:10182000000F000009000F0F000D800F05C0188089
:101830000F0C70F0C00F083F81700F04147FF00F81
:101840000C01AC180F040FC0380F067807EC0F0D11
:10185000C07E860F0703C0060F061E000E0F0C7019
:10186000000F0F0DC010078F0F0018018F1C0018FC
:101870001FCF18001875CF3800003F4F3800000404
:101880006F380000063F380000027F6800000FFF3D
:10189000580000FA2FC80003C0EFD800020F8F983D
:1018A00000001A0F980000380F380000100F0000D9
:1018B00000000000000020202020200020005050C8
:1018C0005000000000005050F850F85050002078B0
:1018D000C07028F02000C0C810204098180040A018
:1018E000A040A890680030204000000000001020B8
:1018F000404040201000402010101020400020A840
:10190000702070A82000202020F820202000000057
:10191000000060408000000000F8000000000000AF
:101920000000006060000008102040800000708807
:1019300098A8C8887000206020202020700070883F
:1019400008304080F800F808103008887000103027
:101950005090F8101000F880F008088870003840A7
:1019600080F088887000F80810204040400070889F
:10197000887088887000708888780810E00000609F
:101980006000606000000060600060608000102007
:101990004080402010000000F800F80000004020C7
:1019A000100810204000708810202000200070884F
:1019B000B8A8B880780020508888F8888800F08817
:1019C00088F08888F0007088808080887000F088B7
:1019D00088888888F000F88080F08080F800F8809F
:1019E00080F08080800070888080B8887800888847
:1019F00088F8888888007020202020207000381007
:101A00001010109060008890A0C0A0908800808086
:101A100080808080F80088D8A8A888888800888876
:101A2000C8A8988888007088888888887000F0889E
:101A300088F08080800070888888A8906800F0888E
:101A400088F0A09088007088807008887000F82066
:101A50002020202020008888888888887000888836
:101A6000888888502000888888A8A8D88800888816
:101A70005020508888008888502020202000F808B6
:101A800010204080F800F0C0C0C0C0C0F00000804E
:101A900040201008000078181818181878002070D6
:101AA000A82020202000002040F840200000201026
:101AB0000800000000000000E010709068008080C6
:101AC000B0C888C8B0000000708880807000080826
:101AD00068988898680000007088F080700030482E
:101AE00040F04040400000007088887808F0808016
:101AF000B0C8888888002000002020202000100026
:101B0000003010101060808090A0C0A0980060206D
:101B1000202020207000000050A8A8A8A8000000E5
:101B2000B04848484800000070888888700000006D
:101B3000F08888F0808000007888887808080000A5
:101B4000B04840404000000078807008F0004040FD
:101B5000F8404048300000009090909068000000ED
:101B60008888885020000000A8A8A8A8500000007D
:101B700088502050880000008888986808F000008D
:101B8000F8102040F80020404080404020002020F5
:101B9000200020202000201010081010200000003D
:101BA00040A810000000000000000000000000003D
:101BB0000000001010101010000010000000006C59
:101BC00048480000000000000000001414287C2891
:101BD0007C285050000000103840403848701010E9
:101BE0000000002050200C700814080000000000C5
:101BF000001820205448340000000010101010007D
:101C0000000000000000000808101010101010085C
:101C100008000020201010101010102020000010CC
:101C20007C1028280000000000000000101010FCAC
:101C3000101010000000000000000000001810301C
:101C4000200000000000007C0000000000000000F8
:101C500000000000003030000000000404080810FC
:101C600010202040000000384444444444443800DC
:101C7000000000301010101010107C000000003820
:101C80004404081020447C00000000384404180478
:101C9000044438000000000C141424447C040C009C
:101CA0000000003C20203804044438000000001CE0
:101CB00020407844444438000000007C4404080874
:101CC00008101000000000384444384444443800F0
:101CD000000000384444443C040870000000000048
:101CE0000030300000303000000000000018180004
:101CF00000183020000000000C10608060100C0004
:101D00000000000000007C007C00000000000000DB
:101D1000C02018041820C000000000001824040887
:101D20001000300000003844444C54544C404438B7
:101D300000000030102828287C44EC00000000F847
:101D4000444478444444F8000000003C444040408F
:101D500040443800000000F0484444444448F00047
:101D6000000000FC445070504044FC000000007C27
:101D700020283828202070000000003C4440404CBF
:101D800044443800000000EC44447C444444EC00EB
:101D90000000007C1010101010107C000000003CAF
:101DA0000808084848483000000000EC44485070DB
:101DB0004844E400000000702020202024247C00FF
:101DC000000000EC6C6C54544444EC00000000EC47
:101DD00064645454544CEC000000003844444444BF
:101DE0004444380000000078242424382020700067
:101DF00000000038444444444444381C000000F8C7
:101E0000444444784844E000000000344C40380426
:101E100004645800000000FC9010101010103800EE
:101E2000000000EC4444444444443800000000EC0A
:101E30004444282828101000000000EC4444545466
:101E400054542800000000C4442810102844C40042
:101E5000000000EC44282810101038000000007C1E
:101E60004408101020447C0000000038202020206E
:101E700020202020380000402020201010080808D2
:101E80000000003808080808080808083800001092
:101E900010284400000000000000000000000000C6
:101EA0000000000000FC001008000000000000001E
:101EB000000000000038443C44443C00000000C0E6
:101EC000405864444444F80000000000003C444092
:101ED000404438000000000C04344C4444443C00AE
:101EE000000000000038447C40403C000000001C22
:101EF000207C202020207C000000000000344C4486
:101F000044443C04380000C0405864444444EC005D
:101F1000000000100070101010107C000000001075
:101F20000078080808080808700000C0405C487085
:101F30005048DC00000000301010101010107C0021
:101F40000000000000E854545454FC00000000005D
:101F500000D864444444EC000000000000384444CD
:101F6000444438000000000000D8644444447840F1
:101F7000E000000000344C4444443C040C000000E9
:101F8000006C302020207C0000000000003C443821
:101F90000444780000000000207C202020201C0049
:101FA0000000000000CC4444444C34000000000019
:101FB00000EC4444282810000000000000EC4454C9
:101FC000545428000000000000CC48303048CC00B9
:101FD0000000000000EC44242818101078000000D5
:101FE000007C481020447C000000000810101010F5
:101FF00020101010080000101010101010101010F9
:102000000000002010101010081010102000000018
:102010000000002458000000000000000000000044
:1020200000000000000000000000000000183C3C20
:102030003C18181800181800000000666666662430
:1020400000000000000000000000000000006C6CB8
:10205000FE6C6C6CFE6C6C0000001818187CC6C21C
:10206000C07C0686C67C181800000000000000C274
:10207000C60C183060C686000000000000386C6C8A
:102080003876DCCCCCCC76000000003030303060CC
:10209000000000000000000000000000000C1830EC
:1020A0003030303030180C00000000000030180CC8
:1020B0000C0C0C0C0C18300000000000000000009C
:1020C000663CFF3C660000000000000000000000CD
:1020D00018187E1818000000000000000000000022
:1020E0000000000018181830000000000000000078
:1020F0000000FE00000000000000000000000000E2
:10210000000000000018180000000000000000029D
:10211000060C183060C0800000000000007CC6C6BD
:10212000CED6D6E6C6C67C0000000000001838787F
:102130001818181818187E0000000000007CC60649
:102140000C183060C0C6FE0000000000007CC6060F
:10215000063C060606C67C0000000000000C1C3C85
:102160006CCCFE0C0C0C1E000000000000FEC0C079
:10217000C0FC0E0606C67C0000000000003860C0EF
:10218000C0FCC6C6C6C67C000000000000FEC60635
:10219000060C18303030300000000000007CC6C64D
:1021A000C67CC6C6C6C67C0000000000007CC6C651
:1021B000C67E0606060C780000000000000000182D
:1021C00018000000181800000000000000000018AF
:1021D0001800000018183000000000000000060C75
:1021E00018306030180C06000000000000000000ED
:1021F00000FE0000FE000000000000000000603053
:10220000180C060C1830600000000000007CC6C6E8
:102210000C181818001818000000000000007CC6F8
:10222000C6DEDEDEDCC07C00000000000010386C82
:10223000C6C6FEC6C6C6C6000000000000FC666634
:10224000667C66666666FC0000000000003C66C2B4
:10225000C0C0C0C0C2663C000000000000F86C6650
:1022600066666666666CF8000000000000FE666246
:10227000687868606266FE000000000000FE66622A
:10228000687868606060F00000000000003C66C292
:10229000C0C0DEC6C6663A000000000000C6C6C662
:1022A000C6FEC6C6C6C6C60000000000003C181820
:1022B0001818181818183C0000000000001E0C0C1C
:1022C0000C0C0CCCCCCC78000000000000E6666C56
:1022D0006C78786C6666E6000000000000F06060D4
:1022E000606060606266FE000000000000C6EEFEF6
:1022F000FED6C6C6C6C6C6000000000000C6E6F68A
:10230000FEDECEC6C6C6C6000000000000386CC6A1
:10231000C6C6C6C6C66C38000000000000FC666673
:10232000667C60606060F00000000000007CC6C653
:10233000C6C6C6C6D6DE7C0C0E00000000FC666673
:10234000667C6C666666E60000000000007CC6C61F
:1023500060380C06C6C67C0000000000007E7E5A75
:102360001818181818183C000000000000C6C6C64F
:10237000C6C6C6C6C6C67C000000000000C6C6C6EB
:10238000C6C6C6C66C3810000000000000C6C6C62F
:10239000C6C6D6D6FE6C6C000000000000C6C66C37
:1023A0006C38386C6CC6C6000000000000666666BB
:1023B000663C181818183C000000000000FEC68695
:1023C0000C183060C2C6FE0000000000003C303037
:1023D0003030303030303C0000000000000080C061
:1023E000E070381C0E06020000000000003C0C0CDF
:1023F0000C0C0C0C0C0C3C0000001038386CC600A7
:1024000000000000000000000000000000000000CC
:102410000000000000000000FF0030303018000015
:1024200000000000000000000000000000000000AC
:10243000780C7CCCCCCC76000000000000E0606022
:10244000786C66666666DC00000000000000000034
:102450007CC6C0C0C0C67C0000000000001C0C0C84
:102460003C6CCCCCCCCC760000000000000000001E
:102470007CC6FEC0C0C67C000000000000386C6452
:1024800060F060606060F00000000000000000008C
:1024900076CCCCCCCCCC7C0CCC78000000E060605E
:1024A0006C7666666666E60000000000001818009C
:1024B0003818181818183C00000000000006060024
:1024C0000E06060606060666663C000000E0606032
:1024D000666C78786C66E60000000000003818181A
:1024E0001818181818183C00000000000000000020
:1024F000ECFED6D6D6D6D6000000000000000000C4
:10250000DC6666666666660000000000000000008B
:102510007CC6C6C6C6C67C000000000000000000E5
:10252000DC66666666667C6060F0000000000000A5
:1025300076CCCCCCCCCC7C0C0C1E00000000000077
:10254000DC7662606060F0000000000000000000C7
:102550007CC660380CC67C000000000000103030E3
:10256000FC30303030361C0000000000000000005D
:10257000CCCCCCCCCCCC760000000000000000001D
:1025800066666666663C18000000000000000000F9
:10259000C6C6C6D6D6FE6C000000000000000000D3
:1025A000C66C3838386CC60000000000000000001F
:1025B000C6C6C6C6C6C67E060CF8000000000000EF
:1025C000FECC183060C6FE0000000000000E181897
:1025D0001870181818180E000000000000181818BD
:1025E00018001818181818000000000000701818BB
:1025F000180E181818187000000000000076DC0093
:102600000000000000000000000000002C26000870
:102610000000002010000000280100083C260008EF
:1026200010000020180C0000440100080100000008
:0C26300010000000000000000024F40076
:04000005080000ED02
:00000001FF
